{
  "abi": [
    {
      "type": "constructor",
      "inputs": [],
      "stateMutability": "nonpayable"
    },
    {
      "type": "function",
      "name": "cast_vote",
      "inputs": [
        {
          "name": "poll_id",
          "type": "uint256",
          "internalType": "uint256"
        },
        {
          "name": "option",
          "type": "string",
          "internalType": "string"
        }
      ],
      "outputs": [],
      "stateMutability": "nonpayable"
    },
    {
      "type": "function",
      "name": "create_poll",
      "inputs": [
        {
          "name": "_name",
          "type": "string",
          "internalType": "string"
        },
        {
          "name": "_description",
          "type": "string",
          "internalType": "string"
        },
        {
          "name": "_options",
          "type": "string[]",
          "internalType": "string[]"
        },
        {
          "name": "_start_time",
          "type": "uint256",
          "internalType": "uint256"
        },
        {
          "name": "_end_time",
          "type": "uint256",
          "internalType": "uint256"
        }
      ],
      "outputs": [],
      "stateMutability": "nonpayable"
    },
    {
      "type": "function",
      "name": "end_poll",
      "inputs": [
        {
          "name": "poll_id",
          "type": "uint256",
          "internalType": "uint256"
        }
      ],
      "outputs": [],
      "stateMutability": "nonpayable"
    },
    {
      "type": "function",
      "name": "get_votes",
      "inputs": [
        {
          "name": "poll_id",
          "type": "uint256",
          "internalType": "uint256"
        },
        {
          "name": "option",
          "type": "string",
          "internalType": "string"
        }
      ],
      "outputs": [
        {
          "name": "",
          "type": "uint256",
          "internalType": "uint256"
        }
      ],
      "stateMutability": "view"
    },
    {
      "type": "function",
      "name": "get_winner",
      "inputs": [
        {
          "name": "poll_id",
          "type": "uint256",
          "internalType": "uint256"
        }
      ],
      "outputs": [
        {
          "name": "",
          "type": "string",
          "internalType": "string"
        }
      ],
      "stateMutability": "view"
    },
    {
      "type": "function",
      "name": "owner",
      "inputs": [],
      "outputs": [
        {
          "name": "",
          "type": "address",
          "internalType": "address"
        }
      ],
      "stateMutability": "view"
    },
    {
      "type": "function",
      "name": "poll_count",
      "inputs": [],
      "outputs": [
        {
          "name": "",
          "type": "uint256",
          "internalType": "uint256"
        }
      ],
      "stateMutability": "view"
    },
    {
      "type": "function",
      "name": "polls",
      "inputs": [
        {
          "name": "",
          "type": "uint256",
          "internalType": "uint256"
        }
      ],
      "outputs": [
        {
          "name": "name",
          "type": "string",
          "internalType": "string"
        },
        {
          "name": "description",
          "type": "string",
          "internalType": "string"
        },
        {
          "name": "start_time",
          "type": "uint256",
          "internalType": "uint256"
        },
        {
          "name": "end_time",
          "type": "uint256",
          "internalType": "uint256"
        },
        {
          "name": "winner",
          "type": "string",
          "internalType": "string"
        },
        {
          "name": "is_ended",
          "type": "bool",
          "internalType": "bool"
        }
      ],
      "stateMutability": "view"
    },
    {
      "type": "event",
      "name": "poll_created",
      "inputs": [
        {
          "name": "poll_id",
          "type": "uint256",
          "indexed": true,
          "internalType": "uint256"
        },
        {
          "name": "name",
          "type": "string",
          "indexed": false,
          "internalType": "string"
        },
        {
          "name": "description",
          "type": "string",
          "indexed": false,
          "internalType": "string"
        }
      ],
      "anonymous": false
    },
    {
      "type": "event",
      "name": "poll_ended",
      "inputs": [
        {
          "name": "poll_id",
          "type": "uint256",
          "indexed": true,
          "internalType": "uint256"
        },
        {
          "name": "winner",
          "type": "string",
          "indexed": false,
          "internalType": "string"
        }
      ],
      "anonymous": false
    },
    {
      "type": "event",
      "name": "vote_cast",
      "inputs": [
        {
          "name": "poll_id",
          "type": "uint256",
          "indexed": true,
          "internalType": "uint256"
        },
        {
          "name": "voter",
          "type": "address",
          "indexed": false,
          "internalType": "address"
        },
        {
          "name": "option",
          "type": "string",
          "indexed": false,
          "internalType": "string"
        }
      ],
      "anonymous": false
    },
    {
      "type": "event",
      "name": "vote_receipt_sent",
      "inputs": [
        {
          "name": "voter",
          "type": "address",
          "indexed": true,
          "internalType": "address"
        },
        {
          "name": "poll_id",
          "type": "uint256",
          "indexed": true,
          "internalType": "uint256"
        },
        {
          "name": "receipt",
          "type": "string",
          "indexed": false,
          "internalType": "string"
        }
      ],
      "anonymous": false
    }
  ],
  "bytecode": {
    "object": "0x6080604052348015600e575f5ffd5b50600280546001600160a01b0319163317905561128d8061002e5f395ff3fe608060405234801561000f575f5ffd5b5060043610610085575f3560e01c8063792abe8e11610058578063792abe8e146100f75780638da5cb5b1461010a578063ac2f007414610135578063dc0796811461015a575f5ffd5b80631ac02e351461008957806323e93d4a1461009e578063243dc409146100c457806373042fd6146100e4575b5f5ffd5b61009c610097366004610c79565b610162565b005b6100b16100ac366004610d41565b6103ec565b6040519081526020015b60405180910390f35b6100d76100d2366004610c79565b610448565b6040516100bb9190610db3565b61009c6100f2366004610dcc565b61055a565b61009c610105366004610d41565b6106f2565b60025461011d906001600160a01b031681565b6040516001600160a01b0390911681526020016100bb565b610148610143366004610c79565b6109f3565b6040516100bb96959493929190610efd565b6100b15f5481565b805f54811061018c5760405162461bcd60e51b815260040161018390610f57565b60405180910390fd5b5f828152600160205260409020600481015442116101e35760405162461bcd60e51b8152602060048201526014602482015273506f6c6c206973207374696c6c2061637469766560601b6044820152606401610183565b600781015460ff16156102315760405162461bcd60e51b8152602060048201526016602482015275141bdb1b081a185cc8185b1c9958591e48195b99195960521b6044820152606401610183565b5f806060815b6002850154811015610346575f85600201828154811061025957610259610f84565b905f5260205f2001805461026c90610f98565b80601f016020809104026020016040519081016040528092919081815260200182805461029890610f98565b80156102e35780601f106102ba576101008083540402835291602001916102e3565b820191905f5260205f20905b8154815290600101906020018083116102c657829003601f168201915b505050505090505f86600501826040516102fd9190610fca565b908152602001604051809103902054905085811115610324578095508193505f945061033c565b858114801561033257508515155b1561033c57600194505b5050600101610237565b50825f0361035357600191505b81156103885760408051808201909152600381526254494560e81b60208201526006850190610382908261102c565b50610398565b60068401610396828261102c565b505b60078401805460ff1916600117905560405186907fb9640e6a2490d09be32ad820ef610e013230fb8d3dd24c69377c43088c562da3906103dc9060068801906110e7565b60405180910390a2505050505050565b5f825f54811061040e5760405162461bcd60e51b815260040161018390610f57565b60015f8581526020019081526020015f20600501836040516104309190610fca565b90815260200160405180910390205491505092915050565b6060815f54811061046b5760405162461bcd60e51b815260040161018390610f57565b5f838152600160205260409020600781015460ff166104c55760405162461bcd60e51b8152602060048201526016602482015275141bdb1b081a185cc81b9bdd08195b991959081e595d60521b6044820152606401610183565b8060060180546104d490610f98565b80601f016020809104026020016040519081016040528092919081815260200182805461050090610f98565b801561054b5780601f106105225761010080835404028352916020019161054b565b820191905f5260205f20905b81548152906001019060200180831161052e57829003601f168201915b50505050509250505b50919050565b6002546001600160a01b031633146105ad5760405162461bcd60e51b81526020600482015260166024820152752737ba103a34329031b7b73a3930b1ba1037bbb732b960511b6044820152606401610183565b8082106105f15760405162461bcd60e51b8152602060048201526012602482015271496e76616c69642074696d652072616e676560701b6044820152606401610183565b60018351116106425760405162461bcd60e51b815260206004820152601d60248201527f4174206c656173742074776f206f7074696f6e732072657175697265640000006044820152606401610183565b5f805481526001602052604090208061065b878261102c565b506001810161066a868261102c565b5083516106809060028301906020870190610bbb565b50600381018390556004810182905560078101805460ff191690555f546040517f4159abacf68ef1a7d9da0d2f965b56f05ae1c059d46db0e9543a90380c5c89ed906106cf908990899061116e565b60405180910390a25f805490806106e58361119b565b9190505550505050505050565b815f5481106107135760405162461bcd60e51b815260040161018390610f57565b5f83815260016020526040902060038101544210156107745760405162461bcd60e51b815260206004820152601a60248201527f566f74696e6720686173206e6f742073746172746564207965740000000000006044820152606401610183565b80600401544211156107bb5760405162461bcd60e51b815260206004820152601060248201526f159bdd1a5b99c81a185cc8195b99195960821b6044820152606401610183565b335f90815260088201602052604090205460ff16156108155760405162461bcd60e51b8152602060048201526016602482015275165bdd481a185d9948185b1c9958591e481d9bdd195960521b6044820152606401610183565b5f805b60028301548110156108a45782600201818154811061083957610839610f84565b905f5260205f200160405160200161085191906111bf565b60405160208183030381529060405280519060200120856040516020016108789190610fca565b604051602081830303815290604052805190602001200361089c57600191506108a4565b600101610818565b50806108e35760405162461bcd60e51b815260206004820152600e60248201526d24b73b30b634b21037b83a34b7b760911b6044820152606401610183565b81600501846040516108f59190610fca565b9081526040519081900360200190208054905f6109118361119b565b9091555050335f81815260088401602052604090819020805460ff191660011790555186917f7dc779d142261533f29e34077132090eb2a465223a92cebec351d56ef20d6f46916109649190889061122c565b60405180910390a284336001600160a01b03167fef6bc2b8b711e4c04d433bea9e2a0317a786da7463fbdead2a84dd036737ecef6040516109e49060208082526025908201527f596f757220766f746520686173206265656e207375636365737366756c6c792060408201526431b0b9ba1760d91b606082015260800190565b60405180910390a35050505050565b60016020525f9081526040902080548190610a0d90610f98565b80601f0160208091040260200160405190810160405280929190818152602001828054610a3990610f98565b8015610a845780601f10610a5b57610100808354040283529160200191610a84565b820191905f5260205f20905b815481529060010190602001808311610a6757829003601f168201915b505050505090806001018054610a9990610f98565b80601f0160208091040260200160405190810160405280929190818152602001828054610ac590610f98565b8015610b105780601f10610ae757610100808354040283529160200191610b10565b820191905f5260205f20905b815481529060010190602001808311610af357829003601f168201915b505050505090806003015490806004015490806006018054610b3190610f98565b80601f0160208091040260200160405190810160405280929190818152602001828054610b5d90610f98565b8015610ba85780601f10610b7f57610100808354040283529160200191610ba8565b820191905f5260205f20905b815481529060010190602001808311610b8b57829003601f168201915b5050506007909301549192505060ff1686565b828054828255905f5260205f20908101928215610bff579160200282015b82811115610bff5782518290610bef908261102c565b5091602001919060010190610bd9565b50610c0b929150610c0f565b5090565b80821115610c0b575f610c228282610c2b565b50600101610c0f565b508054610c3790610f98565b5f825580601f10610c46575050565b601f0160209004905f5260205f2090810190610c629190610c65565b50565b5b80821115610c0b575f8155600101610c66565b5f60208284031215610c89575f5ffd5b5035919050565b634e487b7160e01b5f52604160045260245ffd5b604051601f8201601f1916810167ffffffffffffffff81118282101715610ccd57610ccd610c90565b604052919050565b5f82601f830112610ce4575f5ffd5b813567ffffffffffffffff811115610cfe57610cfe610c90565b610d11601f8201601f1916602001610ca4565b818152846020838601011115610d25575f5ffd5b816020850160208301375f918101602001919091529392505050565b5f5f60408385031215610d52575f5ffd5b82359150602083013567ffffffffffffffff811115610d6f575f5ffd5b610d7b85828601610cd5565b9150509250929050565b5f81518084528060208401602086015e5f602082860101526020601f19601f83011685010191505092915050565b602081525f610dc56020830184610d85565b9392505050565b5f5f5f5f5f60a08688031215610de0575f5ffd5b853567ffffffffffffffff811115610df6575f5ffd5b610e0288828901610cd5565b955050602086013567ffffffffffffffff811115610e1e575f5ffd5b610e2a88828901610cd5565b945050604086013567ffffffffffffffff811115610e46575f5ffd5b8601601f81018813610e56575f5ffd5b803567ffffffffffffffff811115610e7057610e70610c90565b8060051b610e8060208201610ca4565b9182526020818401810192908101908b841115610e9b575f5ffd5b6020850192505b83831015610ee157823567ffffffffffffffff811115610ec0575f5ffd5b610ecf8d602083890101610cd5565b83525060209283019290910190610ea2565b989b979a50979860608101359850608001359695505050505050565b60c081525f610f0f60c0830189610d85565b8281036020840152610f218189610d85565b90508660408401528560608401528281036080840152610f418186610d85565b91505082151560a0830152979650505050505050565b602080825260139082015272141bdb1b08191bd95cc81b9bdd08195e1a5cdd606a1b604082015260600190565b634e487b7160e01b5f52603260045260245ffd5b600181811c90821680610fac57607f821691505b60208210810361055457634e487b7160e01b5f52602260045260245ffd5b5f82518060208501845e5f920191825250919050565b601f82111561102757805f5260205f20601f840160051c810160208510156110055750805b601f840160051c820191505b81811015611024575f8155600101611011565b50505b505050565b815167ffffffffffffffff81111561104657611046610c90565b61105a816110548454610f98565b84610fe0565b6020601f82116001811461108c575f83156110755750848201515b5f19600385901b1c1916600184901b178455611024565b5f84815260208120601f198516915b828110156110bb578785015182556020948501946001909201910161109b565b50848210156110d857868401515f19600387901b60f8161c191681555b50505050600190811b01905550565b602081525f5f83546110f881610f98565b806020860152600182165f8114611116576001811461113257611163565b60ff1983166040870152604082151560051b8701019350611163565b865f5260205f205f5b8381101561115a5781548882016040015260019091019060200161113b565b87016040019450505b509195945050505050565b604081525f6111806040830185610d85565b82810360208401526111928185610d85565b95945050505050565b5f600182016111b857634e487b7160e01b5f52601160045260245ffd5b5060010190565b5f5f83546111cc81610f98565b6001821680156111e357600181146111f857611163565b60ff1983168652811515820286019350611163565b865f5260205f205f5b8381101561121d57815488820152600190910190602001611201565b50505093909301949350505050565b6001600160a01b03831681526040602082018190525f9061124f90830184610d85565b94935050505056fea264697066735822122044cdb3e34e99061ff35ae68ff18be30e12bc16f6854e386e0262a0b922138f5464736f6c634300081b0033",
    "linkReferences": {}
  },
  "methodIdentifiers": {
    "cast_vote(uint256,string)": "792abe8e",
    "create_poll(string,string,string[],uint256,uint256)": "73042fd6",
    "end_poll(uint256)": "1ac02e35",
    "get_votes(uint256,string)": "23e93d4a",
    "get_winner(uint256)": "243dc409",
    "owner()": "8da5cb5b",
    "poll_count()": "dc079681",
    "polls(uint256)": "ac2f0074"
  },
  "id": 25
}