{
  "abi": [
    {
      "type": "function",
      "name": "cast_vote",
      "inputs": [
        {
          "name": "poll_id",
          "type": "uint256",
          "internalType": "uint256"
        },
        {
          "name": "option",
          "type": "string",
          "internalType": "string"
        }
      ],
      "outputs": [],
      "stateMutability": "nonpayable"
    },
    {
      "type": "function",
      "name": "create_poll",
      "inputs": [
        {
          "name": "_name",
          "type": "string",
          "internalType": "string"
        },
        {
          "name": "_description",
          "type": "string",
          "internalType": "string"
        },
        {
          "name": "_options",
          "type": "string[]",
          "internalType": "string[]"
        },
        {
          "name": "_start_time",
          "type": "uint256",
          "internalType": "uint256"
        },
        {
          "name": "_end_time",
          "type": "uint256",
          "internalType": "uint256"
        }
      ],
      "outputs": [
        {
          "name": "",
          "type": "uint256",
          "internalType": "uint256"
        }
      ],
      "stateMutability": "nonpayable"
    },
    {
      "type": "function",
      "name": "end_poll",
      "inputs": [
        {
          "name": "poll_id",
          "type": "uint256",
          "internalType": "uint256"
        }
      ],
      "outputs": [],
      "stateMutability": "nonpayable"
    },
    {
      "type": "function",
      "name": "finalize_poll",
      "inputs": [
        {
          "name": "poll_id",
          "type": "uint256",
          "internalType": "uint256"
        }
      ],
      "outputs": [],
      "stateMutability": "nonpayable"
    },
    {
      "type": "function",
      "name": "get_votes",
      "inputs": [
        {
          "name": "poll_id",
          "type": "uint256",
          "internalType": "uint256"
        },
        {
          "name": "option",
          "type": "string",
          "internalType": "string"
        }
      ],
      "outputs": [
        {
          "name": "",
          "type": "uint256",
          "internalType": "uint256"
        }
      ],
      "stateMutability": "view"
    },
    {
      "type": "function",
      "name": "get_winner",
      "inputs": [
        {
          "name": "poll_id",
          "type": "uint256",
          "internalType": "uint256"
        }
      ],
      "outputs": [
        {
          "name": "",
          "type": "string",
          "internalType": "string"
        }
      ],
      "stateMutability": "view"
    },
    {
      "type": "function",
      "name": "poll_count",
      "inputs": [],
      "outputs": [
        {
          "name": "",
          "type": "uint256",
          "internalType": "uint256"
        }
      ],
      "stateMutability": "view"
    },
    {
      "type": "function",
      "name": "polls",
      "inputs": [
        {
          "name": "",
          "type": "uint256",
          "internalType": "uint256"
        }
      ],
      "outputs": [
        {
          "name": "id",
          "type": "uint256",
          "internalType": "uint256"
        },
        {
          "name": "name",
          "type": "string",
          "internalType": "string"
        },
        {
          "name": "description",
          "type": "string",
          "internalType": "string"
        },
        {
          "name": "start_time",
          "type": "uint256",
          "internalType": "uint256"
        },
        {
          "name": "end_time",
          "type": "uint256",
          "internalType": "uint256"
        },
        {
          "name": "winner",
          "type": "string",
          "internalType": "string"
        },
        {
          "name": "is_ended",
          "type": "bool",
          "internalType": "bool"
        },
        {
          "name": "owner",
          "type": "address",
          "internalType": "address"
        }
      ],
      "stateMutability": "view"
    },
    {
      "type": "function",
      "name": "usedNonces",
      "inputs": [
        {
          "name": "",
          "type": "address",
          "internalType": "address"
        },
        {
          "name": "",
          "type": "uint256",
          "internalType": "uint256"
        },
        {
          "name": "",
          "type": "uint256",
          "internalType": "uint256"
        }
      ],
      "outputs": [
        {
          "name": "",
          "type": "bool",
          "internalType": "bool"
        }
      ],
      "stateMutability": "view"
    },
    {
      "type": "event",
      "name": "PollCreated",
      "inputs": [
        {
          "name": "poll_id",
          "type": "uint256",
          "indexed": true,
          "internalType": "uint256"
        },
        {
          "name": "owner",
          "type": "address",
          "indexed": true,
          "internalType": "address"
        },
        {
          "name": "name",
          "type": "string",
          "indexed": false,
          "internalType": "string"
        },
        {
          "name": "description",
          "type": "string",
          "indexed": false,
          "internalType": "string"
        }
      ],
      "anonymous": false
    },
    {
      "type": "event",
      "name": "PollEnded",
      "inputs": [
        {
          "name": "poll_id",
          "type": "uint256",
          "indexed": true,
          "internalType": "uint256"
        },
        {
          "name": "reason",
          "type": "string",
          "indexed": false,
          "internalType": "string"
        }
      ],
      "anonymous": false
    },
    {
      "type": "event",
      "name": "PollFinalized",
      "inputs": [
        {
          "name": "poll_id",
          "type": "uint256",
          "indexed": true,
          "internalType": "uint256"
        },
        {
          "name": "winner",
          "type": "string",
          "indexed": false,
          "internalType": "string"
        }
      ],
      "anonymous": false
    },
    {
      "type": "event",
      "name": "VoteCast",
      "inputs": [
        {
          "name": "poll_id",
          "type": "uint256",
          "indexed": true,
          "internalType": "uint256"
        },
        {
          "name": "voter",
          "type": "address",
          "indexed": false,
          "internalType": "address"
        },
        {
          "name": "option",
          "type": "string",
          "indexed": false,
          "internalType": "string"
        }
      ],
      "anonymous": false
    },
    {
      "type": "event",
      "name": "VoteReceiptSent",
      "inputs": [
        {
          "name": "voter",
          "type": "address",
          "indexed": true,
          "internalType": "address"
        },
        {
          "name": "poll_id",
          "type": "uint256",
          "indexed": true,
          "internalType": "uint256"
        },
        {
          "name": "receipt",
          "type": "string",
          "indexed": false,
          "internalType": "string"
        }
      ],
      "anonymous": false
    }
  ],
  "bytecode": {
    "object": "0x6080604052348015600e575f5ffd5b506115668061001c5f395ff3fe608060405234801561000f575f5ffd5b5060043610610090575f3560e01c8063792abe8e11610063578063792abe8e14610102578063a59e10e614610115578063ac2f007414610158578063c73f70cd1461017f578063dc07968114610192575f5ffd5b80631ac02e351461009457806323e93d4a146100a9578063243dc409146100cf57806373042fd6146100ef575b5f5ffd5b6100a76100a2366004610efa565b61019a565b005b6100bc6100b7366004610fc2565b61034e565b6040519081526020015b60405180910390f35b6100e26100dd366004610efa565b6103aa565b6040516100c69190611034565b6100bc6100fd36600461104d565b6104ce565b6100a7610110366004610fc2565b610639565b61014861012336600461117e565b600260209081525f938452604080852082529284528284209052825290205460ff1681565b60405190151581526020016100c6565b61016b610166366004610efa565b610968565b6040516100c69897969594939291906111bb565b6100a761018d366004610efa565b610b46565b6100bc5f5481565b805f5481106101c45760405162461bcd60e51b81526004016101bb9061122d565b60405180910390fd5b5f828152600160205260409020600a015482906001600160a01b031633146102235760405162461bcd60e51b81526020600482015260126024820152712737ba103a3432903837b6361037bbb732b960711b60448201526064016101bb565b5f8381526001602052604090206005810154421161027a5760405162461bcd60e51b8152602060048201526014602482015273506f6c6c206973207374696c6c2061637469766560601b60448201526064016101bb565b600881015460ff16156102cf5760405162461bcd60e51b815260206004820152601f60248201527f506f6c6c20697320616c7265616479206d61726b656420617320656e6465640060448201526064016101bb565b60088101805460ff1916600117905560405184907f3cd8b7c47b6c58690f4c0495fa321395f529c14fdd30bb08aa5564d15402ddaf90610340906020808252601b908201527f506f6c6c2068617320656e64656420627920746865206f776e65720000000000604082015260600190565b60405180910390a250505050565b5f825f5481106103705760405162461bcd60e51b81526004016101bb9061122d565b60015f8581526020019081526020015f2060060183604051610392919061125a565b90815260200160405180910390205491505092915050565b6060815f5481106103cd5760405162461bcd60e51b81526004016101bb9061122d565b5f8381526001602052604090206007810180546103e990611270565b90505f036104395760405162461bcd60e51b815260206004820152601f60248201527f506f6c6c20686173206e6f74206265656e2066696e616c697a6564207965740060448201526064016101bb565b80600701805461044890611270565b80601f016020809104026020016040519081016040528092919081815260200182805461047490611270565b80156104bf5780601f10610496576101008083540402835291602001916104bf565b820191905f5260205f20905b8154815290600101906020018083116104a257829003601f168201915b50505050509250505b50919050565b5f8183106105135760405162461bcd60e51b8152602060048201526012602482015271496e76616c69642074696d652072616e676560701b60448201526064016101bb565b60018451116105645760405162461bcd60e51b815260206004820152601d60248201527f4174206c656173742074776f206f7074696f6e7320726571756972656400000060448201526064016101bb565b5f80548082526001602081905260409092208181559091810161058789826112ee565b506002810161059688826112ee565b5085516105ac9060038301906020890190610e3c565b50600481018590556005810184905560088101805460ff19169055600a810180546001600160a01b0319163390811790915560405183907fe903c9ab2ab36f6e73d3376b886f32ad2fd9f80744bb7d74443a47cde82f4a5490610612908c908c906113a9565b60405180910390a35f80549080610628836113d6565b909155509198975050505050505050565b815f54811061065a5760405162461bcd60e51b81526004016101bb9061122d565b5f83815260016020526040902060048101544210156106bb5760405162461bcd60e51b815260206004820152601a60248201527f566f74696e6720686173206e6f7420737461727465642079657400000000000060448201526064016101bb565b80600501544211156107025760405162461bcd60e51b815260206004820152601060248201526f159bdd1a5b99c81a185cc8195b99195960821b60448201526064016101bb565b335f90815260098201602052604090205460ff161561075c5760405162461bcd60e51b8152602060048201526016602482015275165bdd481a185d9948185b1c9958591e481d9bdd195960521b60448201526064016101bb565b5f805b60038301548110156107eb57826003018181548110610780576107806113fa565b905f5260205f2001604051602001610798919061140e565b60405160208183030381529060405280519060200120856040516020016107bf919061125a565b60405160208183030381529060405280519060200120036107e357600191506107eb565b60010161075f565b50806108585760405162461bcd60e51b815260206004820152603660248201527f496e76616c6964206f7074696f6e3a20546865206f7074696f6e20796f752073604482015275195b1958dd195908191bd95cc81b9bdd08195e1a5cdd60521b60648201526084016101bb565b816006018460405161086a919061125a565b9081526040519081900360200190208054905f610886836113d6565b9091555050335f81815260098401602052604090819020805460ff191660011790555186917ff707341d6361ac6d7fe6b6db1fbb91b1d8634754ce51f2244ccbfab475d327f4916108d99190889061147f565b60405180910390a284336001600160a01b03167f78d4dd31d81dc5145fbd8478630b3a2d520fd285d24faf35401c97078bd041496040516109599060208082526025908201527f596f757220766f746520686173206265656e207375636365737366756c6c792060408201526431b0b9ba1760d91b606082015260800190565b60405180910390a35050505050565b600160208190525f91825260409091208054918101805461098890611270565b80601f01602080910402602001604051908101604052809291908181526020018280546109b490611270565b80156109ff5780601f106109d6576101008083540402835291602001916109ff565b820191905f5260205f20905b8154815290600101906020018083116109e257829003601f168201915b505050505090806002018054610a1490611270565b80601f0160208091040260200160405190810160405280929190818152602001828054610a4090611270565b8015610a8b5780601f10610a6257610100808354040283529160200191610a8b565b820191905f5260205f20905b815481529060010190602001808311610a6e57829003601f168201915b505050505090806004015490806005015490806007018054610aac90611270565b80601f0160208091040260200160405190810160405280929190818152602001828054610ad890611270565b8015610b235780601f10610afa57610100808354040283529160200191610b23565b820191905f5260205f20905b815481529060010190602001808311610b0657829003601f168201915b505050506008830154600a90930154919260ff16916001600160a01b0316905088565b805f548110610b675760405162461bcd60e51b81526004016101bb9061122d565b5f828152600160205260409020600a015482906001600160a01b03163314610bc65760405162461bcd60e51b81526020600482015260126024820152712737ba103a3432903837b6361037bbb732b960711b60448201526064016101bb565b5f838152600160205260409020600881015460ff16610c365760405162461bcd60e51b815260206004820152602660248201527f506f6c6c206d75737420626520656e646564206265666f72652066696e616c696044820152653d30ba34b7b760d11b60648201526084016101bb565b806007018054610c4590611270565b159050610c945760405162461bcd60e51b815260206004820152601f60248201527f506f6c6c2068617320616c7265616479206265656e2066696e616c697a65640060448201526064016101bb565b5f806060815b6003850154811015610da9575f856003018281548110610cbc57610cbc6113fa565b905f5260205f20018054610ccf90611270565b80601f0160208091040260200160405190810160405280929190818152602001828054610cfb90611270565b8015610d465780601f10610d1d57610100808354040283529160200191610d46565b820191905f5260205f20905b815481529060010190602001808311610d2957829003601f168201915b505050505090505f8660060182604051610d60919061125a565b908152602001604051809103902054905085811115610d87578095508193505f9450610d9f565b8581148015610d9557508515155b15610d9f57600194505b5050600101610c9a565b50821580610db45750815b15610de85760408051808201909152600381526254494560e81b60208201526007850190610de290826112ee565b50610df8565b60078401610df682826112ee565b505b867f5400b819cb3f6dff01521f92210cdf252eea69dd5ba0e379a4207106e0acd2e485600701604051610e2b91906114aa565b60405180910390a250505050505050565b828054828255905f5260205f20908101928215610e80579160200282015b82811115610e805782518290610e7090826112ee565b5091602001919060010190610e5a565b50610e8c929150610e90565b5090565b80821115610e8c575f610ea38282610eac565b50600101610e90565b508054610eb890611270565b5f825580601f10610ec7575050565b601f0160209004905f5260205f2090810190610ee39190610ee6565b50565b5b80821115610e8c575f8155600101610ee7565b5f60208284031215610f0a575f5ffd5b5035919050565b634e487b7160e01b5f52604160045260245ffd5b604051601f8201601f1916810167ffffffffffffffff81118282101715610f4e57610f4e610f11565b604052919050565b5f82601f830112610f65575f5ffd5b813567ffffffffffffffff811115610f7f57610f7f610f11565b610f92601f8201601f1916602001610f25565b818152846020838601011115610fa6575f5ffd5b816020850160208301375f918101602001919091529392505050565b5f5f60408385031215610fd3575f5ffd5b82359150602083013567ffffffffffffffff811115610ff0575f5ffd5b610ffc85828601610f56565b9150509250929050565b5f81518084528060208401602086015e5f602082860101526020601f19601f83011685010191505092915050565b602081525f6110466020830184611006565b9392505050565b5f5f5f5f5f60a08688031215611061575f5ffd5b853567ffffffffffffffff811115611077575f5ffd5b61108388828901610f56565b955050602086013567ffffffffffffffff81111561109f575f5ffd5b6110ab88828901610f56565b945050604086013567ffffffffffffffff8111156110c7575f5ffd5b8601601f810188136110d7575f5ffd5b803567ffffffffffffffff8111156110f1576110f1610f11565b8060051b61110160208201610f25565b9182526020818401810192908101908b84111561111c575f5ffd5b6020850192505b8383101561116257823567ffffffffffffffff811115611141575f5ffd5b6111508d602083890101610f56565b83525060209283019290910190611123565b989b979a50979860608101359850608001359695505050505050565b5f5f5f60608486031215611190575f5ffd5b83356001600160a01b03811681146111a6575f5ffd5b95602085013595506040909401359392505050565b88815261010060208201525f6111d561010083018a611006565b82810360408401526111e7818a611006565b905087606084015286608084015282810360a08401526112078187611006565b94151560c084015250506001600160a01b039190911660e0909101529695505050505050565b602080825260139082015272141bdb1b08191bd95cc81b9bdd08195e1a5cdd606a1b604082015260600190565b5f82518060208501845e5f920191825250919050565b600181811c9082168061128457607f821691505b6020821081036104c857634e487b7160e01b5f52602260045260245ffd5b601f8211156112e957805f5260205f20601f840160051c810160208510156112c75750805b601f840160051c820191505b818110156112e6575f81556001016112d3565b50505b505050565b815167ffffffffffffffff81111561130857611308610f11565b61131c816113168454611270565b846112a2565b6020601f82116001811461134e575f83156113375750848201515b5f19600385901b1c1916600184901b1784556112e6565b5f84815260208120601f198516915b8281101561137d578785015182556020948501946001909201910161135d565b508482101561139a57868401515f19600387901b60f8161c191681555b50505050600190811b01905550565b604081525f6113bb6040830185611006565b82810360208401526113cd8185611006565b95945050505050565b5f600182016113f357634e487b7160e01b5f52601160045260245ffd5b5060010190565b634e487b7160e01b5f52603260045260245ffd5b5f5f835461141b81611270565b600182168015611432576001811461144757611474565b60ff1983168652811515820286019350611474565b865f5260205f205f5b8381101561146c57815488820152600190910190602001611450565b505081860193505b509195945050505050565b6001600160a01b03831681526040602082018190525f906114a290830184611006565b949350505050565b602081525f5f83546114bb81611270565b806020860152600182165f81146114d957600181146114f557611474565b60ff1983166040870152604082151560051b8701019350611474565b865f5260205f205f5b8381101561151d578154888201604001526001909101906020016114fe565b870160400194505050919594505050505056fea26469706673582212200daa136ef66706eca33683951b300de3ef27ff9648739b1b190970718c75907f64736f6c634300081b0033",
    "linkReferences": {}
  },
  "methodIdentifiers": {
    "cast_vote(uint256,string)": "792abe8e",
    "create_poll(string,string,string[],uint256,uint256)": "73042fd6",
    "end_poll(uint256)": "1ac02e35",
    "finalize_poll(uint256)": "c73f70cd",
    "get_votes(uint256,string)": "23e93d4a",
    "get_winner(uint256)": "243dc409",
    "poll_count()": "dc079681",
    "polls(uint256)": "ac2f0074",
    "usedNonces(address,uint256,uint256)": "a59e10e6"
  },
  "id": 23
}